{
  "contractName": "MissingReport",
  "abi": [
    {
      "inputs": [],
      "stateMutability": "nonpayable",
      "type": "constructor"
    },
    {
      "anonymous": false,
      "inputs": [
        {
          "indexed": false,
          "internalType": "string",
          "name": "name",
          "type": "string"
        },
        {
          "indexed": false,
          "internalType": "uint256",
          "name": "age",
          "type": "uint256"
        },
        {
          "indexed": false,
          "internalType": "uint256",
          "name": "height",
          "type": "uint256"
        },
        {
          "indexed": false,
          "internalType": "string",
          "name": "status",
          "type": "string"
        },
        {
          "indexed": false,
          "internalType": "string",
          "name": "description",
          "type": "string"
        },
        {
          "indexed": false,
          "internalType": "string",
          "name": "division",
          "type": "string"
        },
        {
          "indexed": false,
          "internalType": "string",
          "name": "relativeContactNo",
          "type": "string"
        }
      ],
      "name": "postedReportEvent",
      "type": "event"
    },
    {
      "inputs": [
        {
          "internalType": "string",
          "name": "",
          "type": "string"
        }
      ],
      "name": "divisionCount",
      "outputs": [
        {
          "internalType": "uint256",
          "name": "",
          "type": "uint256"
        }
      ],
      "stateMutability": "view",
      "type": "function",
      "constant": true
    },
    {
      "inputs": [
        {
          "internalType": "uint256",
          "name": "",
          "type": "uint256"
        }
      ],
      "name": "divisionNames",
      "outputs": [
        {
          "internalType": "string",
          "name": "",
          "type": "string"
        }
      ],
      "stateMutability": "view",
      "type": "function",
      "constant": true
    },
    {
      "inputs": [
        {
          "internalType": "string",
          "name": "",
          "type": "string"
        }
      ],
      "name": "divisionalMissingReport",
      "outputs": [
        {
          "internalType": "string",
          "name": "name",
          "type": "string"
        },
        {
          "internalType": "uint256",
          "name": "age",
          "type": "uint256"
        },
        {
          "internalType": "uint256",
          "name": "height",
          "type": "uint256"
        },
        {
          "internalType": "string",
          "name": "status",
          "type": "string"
        },
        {
          "internalType": "string",
          "name": "description",
          "type": "string"
        },
        {
          "internalType": "string",
          "name": "division",
          "type": "string"
        },
        {
          "internalType": "string",
          "name": "relativeContactNo",
          "type": "string"
        }
      ],
      "stateMutability": "view",
      "type": "function",
      "constant": true
    },
    {
      "inputs": [],
      "name": "missingPersonCount",
      "outputs": [
        {
          "internalType": "uint256",
          "name": "",
          "type": "uint256"
        }
      ],
      "stateMutability": "view",
      "type": "function",
      "constant": true
    },
    {
      "inputs": [
        {
          "internalType": "string",
          "name": "_name",
          "type": "string"
        },
        {
          "internalType": "uint256",
          "name": "_age",
          "type": "uint256"
        },
        {
          "internalType": "uint256",
          "name": "_height",
          "type": "uint256"
        },
        {
          "internalType": "string",
          "name": "_status",
          "type": "string"
        },
        {
          "internalType": "string",
          "name": "_description",
          "type": "string"
        },
        {
          "internalType": "string",
          "name": "_division",
          "type": "string"
        },
        {
          "internalType": "string",
          "name": "_relativeContactNo",
          "type": "string"
        }
      ],
      "name": "addMissingPerson",
      "outputs": [],
      "stateMutability": "nonpayable",
      "type": "function"
    }
  ],
  "bytecode": "0x60806040526040518061010001604052806040518060400160405280600581526020017f4468616b6100000000000000000000000000000000000000000000000000000081525081526020016040518060400160405280600a81526020017f436869747461676f6e670000000000000000000000000000000000000000000081525081526020016040518060400160405280600681526020017f4b68756c6e61000000000000000000000000000000000000000000000000000081525081526020016040518060400160405280600881526020017f52616a736861686900000000000000000000000000000000000000000000000081525081526020016040518060400160405280600681526020017f53796c686574000000000000000000000000000000000000000000000000000081525081526020016040518060400160405280600781526020017f436f6d696c6c610000000000000000000000000000000000000000000000000081525081526020016040518060400160405280600781526020017f52616e677075720000000000000000000000000000000000000000000000000081525081526020016040518060400160405280600981526020017f4e617273696e67646900000000000000000000000000000000000000000000008152508152506006906008620001f8929190620004e4565b503480156200020657600080fd5b50600160026006600081548110620002235762000222620005d1565b5b906000526020600020016040516200023c919062000713565b908152602001604051809103902060006101000a81548160ff0219169083151502179055506001600260066001815481106200027d576200027c620005d1565b5b9060005260206000200160405162000296919062000713565b908152602001604051809103902060006101000a81548160ff021916908315150217905550600160026006600281548110620002d757620002d6620005d1565b5b90600052602060002001604051620002f0919062000713565b908152602001604051809103902060006101000a81548160ff021916908315150217905550600160026006600381548110620003315762000330620005d1565b5b906000526020600020016040516200034a919062000713565b908152602001604051809103902060006101000a81548160ff0219169083151502179055506001600260066004815481106200038b576200038a620005d1565b5b90600052602060002001604051620003a4919062000713565b908152602001604051809103902060006101000a81548160ff021916908315150217905550600160026006600581548110620003e557620003e4620005d1565b5b90600052602060002001604051620003fe919062000713565b908152602001604051809103902060006101000a81548160ff02191690831515021790555060016002600680815481106200043e576200043d620005d1565b5b9060005260206000200160405162000457919062000713565b908152602001604051809103902060006101000a81548160ff021916908315150217905550600160026006600781548110620004985762000497620005d1565b5b90600052602060002001604051620004b1919062000713565b908152602001604051809103902060006101000a81548160ff021916908315150217905550600060018190555062000a14565b82805482825590600052602060002090810192821562000531579160200282015b82811115620005305782518290816200051f91906200092d565b509160200191906001019062000505565b5b50905062000540919062000544565b5090565b5b808211156200056857600081816200055e91906200056c565b5060010162000545565b5090565b5080546200057a906200062f565b6000825580601f106200058e5750620005af565b601f016020900490600052602060002090810190620005ae9190620005b2565b5b50565b5b80821115620005cd576000816000905550600101620005b3565b5090565b7f4e487b7100000000000000000000000000000000000000000000000000000000600052603260045260246000fd5b7f4e487b7100000000000000000000000000000000000000000000000000000000600052602260045260246000fd5b600060028204905060018216806200064857607f821691505b6020821081036200065e576200065d62000600565b5b50919050565b600081905092915050565b60008190508160005260206000209050919050565b6000815462000693816200062f565b6200069f818662000664565b94506001821660008114620006bd5760018114620006d3576200070a565b60ff19831686528115158202860193506200070a565b620006de856200066f565b60005b838110156200070257815481890152600182019150602081019050620006e1565b838801955050505b50505092915050565b600062000721828462000684565b915081905092915050565b600081519050919050565b7f4e487b7100000000000000000000000000000000000000000000000000000000600052604160045260246000fd5b60006020601f8301049050919050565b600082821b905092915050565b600060088302620007b57fffffffffffffffffffffffffffffffffffffffffffffffffffffffffffffffff8262000776565b620007c1868362000776565b95508019841693508086168417925050509392505050565b6000819050919050565b6000819050919050565b60006200080e620008086200080284620007d9565b620007e3565b620007d9565b9050919050565b6000819050919050565b6200082a83620007ed565b62000842620008398262000815565b84845462000783565b825550505050565b600090565b620008596200084a565b620008668184846200081f565b505050565b5b818110156200088e57620008826000826200084f565b6001810190506200086c565b5050565b601f821115620008dd57620008a7816200066f565b620008b28462000766565b81016020851015620008c2578190505b620008da620008d18562000766565b8301826200086b565b50505b505050565b600082821c905092915050565b60006200090260001984600802620008e2565b1980831691505092915050565b60006200091d8383620008ef565b9150826002028217905092915050565b62000938826200072c565b67ffffffffffffffff81111562000954576200095362000737565b5b6200096082546200062f565b6200096d82828562000892565b600060209050601f831160018114620009a5576000841562000990578287015190505b6200099c85826200090f565b86555062000a0c565b601f198416620009b5866200066f565b60005b82811015620009df57848901518255600182019150602085019450602081019050620009b8565b86831015620009ff5784890151620009fb601f891682620008ef565b8355505b6001600288020188555050505b505050505050565b6110e88062000a246000396000f3fe608060405234801561001057600080fd5b50600436106100575760003560e01c80637d71dc2f1461005c5780638ce7f49d14610092578063978af04c146100c2578063ad605e49146100e0578063b2e22e8d14610110575b600080fd5b610076600480360381019061007191906108be565b61012c565b604051610089979695949392919061099f565b60405180910390f35b6100ac60048036038101906100a791906108be565b61042c565b6040516100b99190610a31565b60405180910390f35b6100ca61045a565b6040516100d79190610a31565b60405180910390f35b6100fa60048036038101906100f59190610a78565b610460565b6040516101079190610aa5565b60405180910390f35b61012a60048036038101906101259190610ac7565b61050c565b005b60048180516020810182018051848252602083016020850120818352809550505050505060009150905080600001805461016590610c24565b80601f016020809104026020016040519081016040528092919081815260200182805461019190610c24565b80156101de5780601f106101b3576101008083540402835291602001916101de565b820191906000526020600020905b8154815290600101906020018083116101c157829003601f168201915b5050505050908060010154908060020154908060030180546101ff90610c24565b80601f016020809104026020016040519081016040528092919081815260200182805461022b90610c24565b80156102785780601f1061024d57610100808354040283529160200191610278565b820191906000526020600020905b81548152906001019060200180831161025b57829003601f168201915b50505050509080600401805461028d90610c24565b80601f01602080910402602001604051908101604052809291908181526020018280546102b990610c24565b80156103065780601f106102db57610100808354040283529160200191610306565b820191906000526020600020905b8154815290600101906020018083116102e957829003601f168201915b50505050509080600501805461031b90610c24565b80601f016020809104026020016040519081016040528092919081815260200182805461034790610c24565b80156103945780601f1061036957610100808354040283529160200191610394565b820191906000526020600020905b81548152906001019060200180831161037757829003601f168201915b5050505050908060060180546103a990610c24565b80601f01602080910402602001604051908101604052809291908181526020018280546103d590610c24565b80156104225780601f106103f757610100808354040283529160200191610422565b820191906000526020600020905b81548152906001019060200180831161040557829003601f168201915b5050505050905087565b6000818051602081018201805184825260208301602085012081835280955050505050506000915090505481565b60015481565b6006818154811061047057600080fd5b90600052602060002001600091509050805461048b90610c24565b80601f01602080910402602001604051908101604052809291908181526020018280546104b790610c24565b80156105045780601f106104d957610100808354040283529160200191610504565b820191906000526020600020905b8154815290600101906020018083116104e757829003601f168201915b505050505081565b60028260405161051c9190610c91565b908152602001604051809103902060009054906101000a900460ff1661054157600080fd5b61054b8288610738565b600590816105599190610e54565b506003600560405161056b9190610fa9565b908152602001604051809103902060009054906101000a900460ff161561059157600080fd5b600160008154809291906105a490610fef565b91905055506000826040516105b99190610c91565b908152602001604051809103902060008154809291906105d890610fef565b91905055506040518060e0016040528088815260200187815260200186815260200185815260200184815260200183815260200182815250600460056040516106219190610fa9565b908152602001604051809103902060008201518160000190816106449190610e54565b506020820151816001015560408201518160020155606082015181600301908161066e9190610e54565b5060808201518160040190816106849190610e54565b5060a082015181600501908161069a9190610e54565b5060c08201518160060190816106b09190610e54565b509050506001600360056040516106c79190610fa9565b908152602001604051809103902060006101000a81548160ff0219169083151502179055507f3b5ef680b1d7ab439464b5827b62a582903f1ea77fc3ebd5241fb1ed691fc41287878787878787604051610727979695949392919061099f565b60405180910390a150505050505050565b6060828260405160200161074d929190611083565b604051602081830303815290604052905092915050565b6000604051905090565b600080fd5b600080fd5b600080fd5b600080fd5b6000601f19601f8301169050919050565b7f4e487b7100000000000000000000000000000000000000000000000000000000600052604160045260246000fd5b6107cb82610782565b810181811067ffffffffffffffff821117156107ea576107e9610793565b5b80604052505050565b60006107fd610764565b905061080982826107c2565b919050565b600067ffffffffffffffff82111561082957610828610793565b5b61083282610782565b9050602081019050919050565b82818337600083830152505050565b600061086161085c8461080e565b6107f3565b90508281526020810184848401111561087d5761087c61077d565b5b61088884828561083f565b509392505050565b600082601f8301126108a5576108a4610778565b5b81356108b584826020860161084e565b91505092915050565b6000602082840312156108d4576108d361076e565b5b600082013567ffffffffffffffff8111156108f2576108f1610773565b5b6108fe84828501610890565b91505092915050565b600081519050919050565b600082825260208201905092915050565b60005b83811015610941578082015181840152602081019050610926565b60008484015250505050565b600061095882610907565b6109628185610912565b9350610972818560208601610923565b61097b81610782565b840191505092915050565b6000819050919050565b61099981610986565b82525050565b600060e08201905081810360008301526109b9818a61094d565b90506109c86020830189610990565b6109d56040830188610990565b81810360608301526109e7818761094d565b905081810360808301526109fb818661094d565b905081810360a0830152610a0f818561094d565b905081810360c0830152610a23818461094d565b905098975050505050505050565b6000602082019050610a466000830184610990565b92915050565b610a5581610986565b8114610a6057600080fd5b50565b600081359050610a7281610a4c565b92915050565b600060208284031215610a8e57610a8d61076e565b5b6000610a9c84828501610a63565b91505092915050565b60006020820190508181036000830152610abf818461094d565b905092915050565b600080600080600080600060e0888a031215610ae657610ae561076e565b5b600088013567ffffffffffffffff811115610b0457610b03610773565b5b610b108a828b01610890565b9750506020610b218a828b01610a63565b9650506040610b328a828b01610a63565b955050606088013567ffffffffffffffff811115610b5357610b52610773565b5b610b5f8a828b01610890565b945050608088013567ffffffffffffffff811115610b8057610b7f610773565b5b610b8c8a828b01610890565b93505060a088013567ffffffffffffffff811115610bad57610bac610773565b5b610bb98a828b01610890565b92505060c088013567ffffffffffffffff811115610bda57610bd9610773565b5b610be68a828b01610890565b91505092959891949750929550565b7f4e487b7100000000000000000000000000000000000000000000000000000000600052602260045260246000fd5b60006002820490506001821680610c3c57607f821691505b602082108103610c4f57610c4e610bf5565b5b50919050565b600081905092915050565b6000610c6b82610907565b610c758185610c55565b9350610c85818560208601610923565b80840191505092915050565b6000610c9d8284610c60565b915081905092915050565b60008190508160005260206000209050919050565b60006020601f8301049050919050565b600082821b905092915050565b600060088302610d0a7fffffffffffffffffffffffffffffffffffffffffffffffffffffffffffffffff82610ccd565b610d148683610ccd565b95508019841693508086168417925050509392505050565b6000819050919050565b6000610d51610d4c610d4784610986565b610d2c565b610986565b9050919050565b6000819050919050565b610d6b83610d36565b610d7f610d7782610d58565b848454610cda565b825550505050565b600090565b610d94610d87565b610d9f818484610d62565b505050565b5b81811015610dc357610db8600082610d8c565b600181019050610da5565b5050565b601f821115610e0857610dd981610ca8565b610de284610cbd565b81016020851015610df1578190505b610e05610dfd85610cbd565b830182610da4565b50505b505050565b600082821c905092915050565b6000610e2b60001984600802610e0d565b1980831691505092915050565b6000610e448383610e1a565b9150826002028217905092915050565b610e5d82610907565b67ffffffffffffffff811115610e7657610e75610793565b5b610e808254610c24565b610e8b828285610dc7565b600060209050601f831160018114610ebe5760008415610eac578287015190505b610eb68582610e38565b865550610f1e565b601f198416610ecc86610ca8565b60005b82811015610ef457848901518255600182019150602085019450602081019050610ecf565b86831015610f115784890151610f0d601f891682610e1a565b8355505b6001600288020188555050505b505050505050565b60008154610f3381610c24565b610f3d8186610c55565b94506001821660008114610f585760018114610f6d57610fa0565b60ff1983168652811515820286019350610fa0565b610f7685610ca8565b60005b83811015610f9857815481890152600182019150602081019050610f79565b838801955050505b50505092915050565b6000610fb58284610f26565b915081905092915050565b7f4e487b7100000000000000000000000000000000000000000000000000000000600052601160045260246000fd5b6000610ffa82610986565b91507fffffffffffffffffffffffffffffffffffffffffffffffffffffffffffffffff820361102c5761102b610fc0565b5b600182019050919050565b7f2d00000000000000000000000000000000000000000000000000000000000000600082015250565b600061106d600183610c55565b915061107882611037565b600182019050919050565b600061108f8285610c60565b915061109a82611060565b91506110a68284610c60565b9150819050939250505056fea26469706673582212202f00340a8850c12186a35300c27c078d0b3bbfe595e300e102abd4528abd20ee64736f6c63430008100033",
  "immutableReferences": {},
  "source": "// SPDX-License-Identifier: GPL-3.0\n\n\n\npragma solidity >=0.7.0 <0.9.0;\n\ncontract MissingReport {\n    event postedReportEvent( \n        string name,\n        uint age,\n        uint height,\n        string status,\n        string description,\n        string division,\n        string relativeContactNo\n    );\n\n    // model a candidate\n    struct MissingPersonInfo {\n        string name;\n        uint age;\n        uint height;\n        string status; //(either missing or found),\n        string description;\n        string division;// from where the person got missing\n        string relativeContactNo;\n       \n   }\n\n    \n\n    // missingPersonCount according to 8 divisions:\n    mapping ( string => uint ) public divisionCount;\n\n\n   // store missingPerson count\n    uint public missingPersonCount;  // Total\n    mapping( string => bool ) private divisions;  //Divisionally\n\n    mapping( string => bool) private keyChecker;\n\n\n    // Read/write missingPersonInfo\n    mapping( string => MissingPersonInfo) public divisionalMissingReport;\n    \n    string private key;\n\n\n    string[] public divisionNames = [\"Dhaka\", \"Chittagong\", \"Khulna\", \"Rajshahi\", \"Sylhet\", \"Comilla\", \"Rangpur\", \"Narsingdi\"];\n\n\n\n    // Constructor\n    constructor() {\n        divisions[ divisionNames[0] ]=true;\n        divisions[ divisionNames[1] ]=true;\n        divisions[ divisionNames[2] ]=true;\n        divisions[ divisionNames[3] ]=true;\n        divisions[ divisionNames[4] ]=true;\n        divisions[ divisionNames[5] ]=true;\n        divisions[ divisionNames[6] ]=true;\n        divisions[ divisionNames[7] ]=true;\n        missingPersonCount = 0;\n    }\n\n    \n\n    // adding missingPerson\n    function addMissingPerson( \n                                string memory _name, \n                                uint _age, \n                                uint _height, \n                                string memory _status, \n                                string memory _description, \n                                string memory _division, \n                                string memory _relativeContactNo\n                            ) public {\n        \n        require( divisions[_division] );\n        \n        \n\n        key = keyConcat(_division,_name);\n        require( !keyChecker[key]);\n        missingPersonCount++;\n        divisionCount[_division]++;\n        divisionalMissingReport[key] = MissingPersonInfo( _name, _age, _height, _status, _description, _division, _relativeContactNo);\n        // MissingPersonInfo memory latestInfo = divisionalMissingReport[key];\n        keyChecker[key] = true;\n\n        emit postedReportEvent(_name, _age, _height, _status, _description, _division, _relativeContactNo);\n    }\n\n\n\n\n\n\n\n\n\n\n\n\n\n\n\n    function keyConcat(string memory a, string memory b) internal pure returns (string memory) {\n\n        return string(abi.encodePacked(a, \"-\", b));\n// https://ethereum.stackexchange.com/questions/729/how-to-concatenate-strings-in-solidity\n    }\n}\n",
  "sourcePath": "/home/akhlaq-aqidah/Documents/bracu/cse446/ethereum/missingDiaries/contracts/MissingReport.sol",
  "compiler": {
    "name": "solc",
    "version": "0.8.16+commit.07a7930e.Emscripten.clang"
  },
  "schemaVersion": "3.4.16",
  "updatedAt": "2023-12-12T12:57:15.964Z",
  "networkType": "ethereum",
  "devdoc": {
    "kind": "dev",
    "methods": {},
    "version": 1
  },
  "userdoc": {
    "kind": "user",
    "methods": {},
    "version": 1
  }
}